{
  "contractName": "SimpleStorage",
  "abi": [
    {
      "constant": true,
      "inputs": [],
      "name": "storedData",
      "outputs": [
        {
          "internalType": "uint256",
          "name": "",
          "type": "uint256"
        }
      ],
      "payable": false,
      "stateMutability": "view",
      "type": "function"
    },
    {
      "constant": false,
      "inputs": [
        {
          "internalType": "uint256",
          "name": "x",
          "type": "uint256"
        }
      ],
      "name": "set",
      "outputs": [],
      "payable": false,
      "stateMutability": "nonpayable",
      "type": "function"
    }
  ],
  "bytecode": "0x608060405234801561001057600080fd5b5060c38061001f6000396000f3fe6080604052348015600f57600080fd5b506004361060325760003560e01c80632a1afcd914603757806360fe47b1146053575b600080fd5b603d607e565b6040518082815260200191505060405180910390f35b607c60048036036020811015606757600080fd5b81019080803590602001909291905050506084565b005b60005481565b806000819055505056fea265627a7a72315820d0bb37dc321c532b4c43f636d05b08c297be49a71b1a635688d74ed0f9a80cca64736f6c63430005100032",
  "source": "pragma solidity ^0.5.0;\r\n\r\ncontract SimpleStorage {\r\n    uint public storedData;\r\n\r\n    function set(uint x) public {\r\n        //storeData = x + 1\r\n\r\n        //Want the data to be set to x\r\n        storedData = x;\r\n    }\r\n}\r\n",
  "sourcePath": "C:/Users/franc/OneDrive/Documents/Academic and Industry work/ASU 2020-2021/Consensys-Academy/Exercises/truffle-test-debugging/project-dir/contracts/SimpleStorage.sol",
  "compiler": {
    "name": "solc",
    "version": "0.5.16+commit.9c3226ce.Emscripten.clang"
  },
  "schemaVersion": "3.3.2",
  "updatedAt": "2020-11-22T14:14:52.846Z",
  "networkType": "ethereum",
  "devdoc": {
    "methods": {}
  },
  "userdoc": {
    "methods": {}
  }
}